{
  "_format": "hh-sol-artifact-1",
  "contractName": "Charity",
  "sourceName": "contracts/Charity.sol",
  "abi": [
    {
      "inputs": [],
      "stateMutability": "nonpayable",
      "type": "constructor"
    },
    {
      "anonymous": false,
      "inputs": [
        {
          "indexed": true,
          "internalType": "uint256",
          "name": "campaignId",
          "type": "uint256"
        },
        {
          "indexed": false,
          "internalType": "uint256",
          "name": "totalRaised",
          "type": "uint256"
        }
      ],
      "name": "CampaignCompleted",
      "type": "event"
    },
    {
      "anonymous": false,
      "inputs": [
        {
          "indexed": true,
          "internalType": "uint256",
          "name": "campaignId",
          "type": "uint256"
        },
        {
          "indexed": false,
          "internalType": "string",
          "name": "title",
          "type": "string"
        },
        {
          "indexed": false,
          "internalType": "uint256",
          "name": "goal",
          "type": "uint256"
        }
      ],
      "name": "CampaignCreated",
      "type": "event"
    },
    {
      "anonymous": false,
      "inputs": [
        {
          "indexed": true,
          "internalType": "uint256",
          "name": "campaignId",
          "type": "uint256"
        },
        {
          "indexed": true,
          "internalType": "address",
          "name": "donor",
          "type": "address"
        },
        {
          "indexed": false,
          "internalType": "uint256",
          "name": "amount",
          "type": "uint256"
        }
      ],
      "name": "DonationMade",
      "type": "event"
    },
    {
      "anonymous": false,
      "inputs": [
        {
          "indexed": true,
          "internalType": "uint256",
          "name": "campaignId",
          "type": "uint256"
        },
        {
          "indexed": false,
          "internalType": "uint256",
          "name": "amount",
          "type": "uint256"
        }
      ],
      "name": "FundsWithdrawn",
      "type": "event"
    },
    {
      "anonymous": false,
      "inputs": [
        {
          "indexed": true,
          "internalType": "uint256",
          "name": "campaignId",
          "type": "uint256"
        },
        {
          "indexed": true,
          "internalType": "address",
          "name": "donor",
          "type": "address"
        },
        {
          "indexed": false,
          "internalType": "uint256",
          "name": "amount",
          "type": "uint256"
        }
      ],
      "name": "RefundIssued",
      "type": "event"
    },
    {
      "inputs": [],
      "name": "campaignCount",
      "outputs": [
        {
          "internalType": "uint256",
          "name": "",
          "type": "uint256"
        }
      ],
      "stateMutability": "view",
      "type": "function"
    },
    {
      "inputs": [
        {
          "internalType": "uint256",
          "name": "",
          "type": "uint256"
        },
        {
          "internalType": "uint256",
          "name": "",
          "type": "uint256"
        }
      ],
      "name": "campaignDonations",
      "outputs": [
        {
          "internalType": "address",
          "name": "donor",
          "type": "address"
        },
        {
          "internalType": "uint256",
          "name": "amount",
          "type": "uint256"
        },
        {
          "internalType": "uint256",
          "name": "timestamp",
          "type": "uint256"
        }
      ],
      "stateMutability": "view",
      "type": "function"
    },
    {
      "inputs": [
        {
          "internalType": "uint256",
          "name": "",
          "type": "uint256"
        }
      ],
      "name": "campaigns",
      "outputs": [
        {
          "internalType": "uint256",
          "name": "id",
          "type": "uint256"
        },
        {
          "internalType": "string",
          "name": "title",
          "type": "string"
        },
        {
          "internalType": "string",
          "name": "description",
          "type": "string"
        },
        {
          "internalType": "string",
          "name": "imageUrl",
          "type": "string"
        },
        {
          "internalType": "address payable",
          "name": "beneficiary",
          "type": "address"
        },
        {
          "internalType": "uint256",
          "name": "goal",
          "type": "uint256"
        },
        {
          "internalType": "uint256",
          "name": "raised",
          "type": "uint256"
        },
        {
          "internalType": "bool",
          "name": "active",
          "type": "bool"
        },
        {
          "internalType": "uint256",
          "name": "deadline",
          "type": "uint256"
        },
        {
          "internalType": "address",
          "name": "creator",
          "type": "address"
        }
      ],
      "stateMutability": "view",
      "type": "function"
    },
    {
      "inputs": [
        {
          "internalType": "uint256",
          "name": "_campaignId",
          "type": "uint256"
        }
      ],
      "name": "checkCampaignExists",
      "outputs": [
        {
          "internalType": "bool",
          "name": "",
          "type": "bool"
        }
      ],
      "stateMutability": "view",
      "type": "function"
    },
    {
      "inputs": [
        {
          "internalType": "string",
          "name": "_title",
          "type": "string"
        },
        {
          "internalType": "string",
          "name": "_description",
          "type": "string"
        },
        {
          "internalType": "string",
          "name": "_imageUrl",
          "type": "string"
        },
        {
          "internalType": "address payable",
          "name": "_beneficiary",
          "type": "address"
        },
        {
          "internalType": "uint256",
          "name": "_goal",
          "type": "uint256"
        },
        {
          "internalType": "uint256",
          "name": "_durationInDays",
          "type": "uint256"
        }
      ],
      "name": "createCampaign",
      "outputs": [
        {
          "internalType": "uint256",
          "name": "",
          "type": "uint256"
        }
      ],
      "stateMutability": "nonpayable",
      "type": "function"
    },
    {
      "inputs": [
        {
          "internalType": "uint256",
          "name": "_campaignId",
          "type": "uint256"
        }
      ],
      "name": "donate",
      "outputs": [],
      "stateMutability": "payable",
      "type": "function"
    },
    {
      "inputs": [
        {
          "internalType": "uint256",
          "name": "",
          "type": "uint256"
        },
        {
          "internalType": "address",
          "name": "",
          "type": "address"
        }
      ],
      "name": "donorAmounts",
      "outputs": [
        {
          "internalType": "uint256",
          "name": "",
          "type": "uint256"
        }
      ],
      "stateMutability": "view",
      "type": "function"
    },
    {
      "inputs": [
        {
          "internalType": "uint256",
          "name": "_campaignId",
          "type": "uint256"
        }
      ],
      "name": "getCampaign",
      "outputs": [
        {
          "internalType": "uint256",
          "name": "id",
          "type": "uint256"
        },
        {
          "internalType": "string",
          "name": "title",
          "type": "string"
        },
        {
          "internalType": "string",
          "name": "description",
          "type": "string"
        },
        {
          "internalType": "string",
          "name": "imageUrl",
          "type": "string"
        },
        {
          "internalType": "address",
          "name": "beneficiary",
          "type": "address"
        },
        {
          "internalType": "uint256",
          "name": "goal",
          "type": "uint256"
        },
        {
          "internalType": "uint256",
          "name": "raised",
          "type": "uint256"
        },
        {
          "internalType": "bool",
          "name": "active",
          "type": "bool"
        },
        {
          "internalType": "uint256",
          "name": "deadline",
          "type": "uint256"
        },
        {
          "internalType": "address",
          "name": "creator",
          "type": "address"
        }
      ],
      "stateMutability": "view",
      "type": "function"
    },
    {
      "inputs": [
        {
          "internalType": "uint256",
          "name": "_campaignId",
          "type": "uint256"
        }
      ],
      "name": "getCampaignDonations",
      "outputs": [
        {
          "components": [
            {
              "internalType": "address",
              "name": "donor",
              "type": "address"
            },
            {
              "internalType": "uint256",
              "name": "amount",
              "type": "uint256"
            },
            {
              "internalType": "uint256",
              "name": "timestamp",
              "type": "uint256"
            }
          ],
          "internalType": "struct Charity.Donation[]",
          "name": "",
          "type": "tuple[]"
        }
      ],
      "stateMutability": "view",
      "type": "function"
    },
    {
      "inputs": [
        {
          "internalType": "uint256",
          "name": "_campaignId",
          "type": "uint256"
        },
        {
          "internalType": "address",
          "name": "_donor",
          "type": "address"
        }
      ],
      "name": "getDonorAmount",
      "outputs": [
        {
          "internalType": "uint256",
          "name": "",
          "type": "uint256"
        }
      ],
      "stateMutability": "view",
      "type": "function"
    },
    {
      "inputs": [],
      "name": "getTotalCampaigns",
      "outputs": [
        {
          "internalType": "uint256",
          "name": "",
          "type": "uint256"
        }
      ],
      "stateMutability": "view",
      "type": "function"
    },
    {
      "inputs": [
        {
          "internalType": "address",
          "name": "_user",
          "type": "address"
        }
      ],
      "name": "getUserDonations",
      "outputs": [
        {
          "internalType": "uint256[]",
          "name": "",
          "type": "uint256[]"
        }
      ],
      "stateMutability": "view",
      "type": "function"
    },
    {
      "inputs": [],
      "name": "owner",
      "outputs": [
        {
          "internalType": "address",
          "name": "",
          "type": "address"
        }
      ],
      "stateMutability": "view",
      "type": "function"
    },
    {
      "inputs": [
        {
          "internalType": "uint256",
          "name": "_campaignId",
          "type": "uint256"
        }
      ],
      "name": "requestRefund",
      "outputs": [],
      "stateMutability": "nonpayable",
      "type": "function"
    },
    {
      "inputs": [
        {
          "internalType": "address",
          "name": "",
          "type": "address"
        },
        {
          "internalType": "uint256",
          "name": "",
          "type": "uint256"
        }
      ],
      "name": "userDonations",
      "outputs": [
        {
          "internalType": "uint256",
          "name": "",
          "type": "uint256"
        }
      ],
      "stateMutability": "view",
      "type": "function"
    },
    {
      "inputs": [
        {
          "internalType": "uint256",
          "name": "_campaignId",
          "type": "uint256"
        }
      ],
      "name": "withdrawFunds",
      "outputs": [],
      "stateMutability": "nonpayable",
      "type": "function"
    }
  ],
  "bytecode": "0x608060405234801561001057600080fd5b50336000806101000a81548173ffffffffffffffffffffffffffffffffffffffff021916908373ffffffffffffffffffffffffffffffffffffffff1602179055506000600181905550612d52806100686000396000f3fe6080604052600436106100f35760003560e01c806370879ff71161008a578063a4b2409e11610059578063a4b2409e1461039e578063ccc0bde4146103c7578063f14faf6f14610404578063f4f182a814610420576100f3565b806370879ff7146102cc5780637274e30d1461030b578063732435b2146103365780638da5cb5b14610373576100f3565b80634933e631116100c65780634933e631146101cf5780635167642f1461020c5780635598f8cc1461024957806365d780fe1461028f576100f3565b8063141961bc146100f8578063155dd5ee1461013e57806316f43dd4146101675780632391916914610192575b600080fd5b34801561010457600080fd5b5061011f600480360381019061011a91906119ab565b61045d565b6040516101359a99989796959493929190611af4565b60405180910390f35b34801561014a57600080fd5b50610165600480360381019061016091906119ab565b610696565b005b34801561017357600080fd5b5061017c61097e565b6040516101899190611ba5565b60405180910390f35b34801561019e57600080fd5b506101b960048036038101906101b491906119ab565b610988565b6040516101c69190611bc0565b60405180910390f35b3480156101db57600080fd5b506101f660048036038101906101f19190611c07565b610996565b6040516102039190611ba5565b60405180910390f35b34801561021857600080fd5b50610233600480360381019061022e91906119ab565b6109c7565b6040516102409190611d56565b60405180910390f35b34801561025557600080fd5b50610270600480360381019061026b91906119ab565b610ae9565b6040516102869a99989796959493929190611d78565b60405180910390f35b34801561029b57600080fd5b506102b660048036038101906102b19190611e29565b610d98565b6040516102c39190611ba5565b60405180910390f35b3480156102d857600080fd5b506102f360048036038101906102ee9190611e69565b610df3565b60405161030293929190611ea9565b60405180910390f35b34801561031757600080fd5b50610320610e5a565b60405161032d9190611ba5565b60405180910390f35b34801561034257600080fd5b5061035d60048036038101906103589190611ee0565b610e60565b60405161036a9190611fbc565b60405180910390f35b34801561037f57600080fd5b50610388610ef7565b6040516103959190611fde565b60405180910390f35b3480156103aa57600080fd5b506103c560048036038101906103c091906119ab565b610f1b565b005b3480156103d357600080fd5b506103ee60048036038101906103e99190611e29565b611248565b6040516103fb9190611ba5565b60405180910390f35b61041e600480360381019061041991906119ab565b61126d565b005b34801561042c57600080fd5b506104476004803603810190610442919061215a565b61163f565b6040516104549190611ba5565b60405180910390f35b60026020528060005260406000206000915090508060000154908060010180546104869061226a565b80601f01602080910402602001604051908101604052809291908181526020018280546104b29061226a565b80156104ff5780601f106104d4576101008083540402835291602001916104ff565b820191906000526020600020905b8154815290600101906020018083116104e257829003601f168201915b5050505050908060020180546105149061226a565b80601f01602080910402602001604051908101604052809291908181526020018280546105409061226a565b801561058d5780601f106105625761010080835404028352916020019161058d565b820191906000526020600020905b81548152906001019060200180831161057057829003601f168201915b5050505050908060030180546105a29061226a565b80601f01602080910402602001604051908101604052809291908181526020018280546105ce9061226a565b801561061b5780601f106105f05761010080835404028352916020019161061b565b820191906000526020600020905b8154815290600101906020018083116105fe57829003601f168201915b5050505050908060040160009054906101000a900473ffffffffffffffffffffffffffffffffffffffff16908060050154908060060154908060070160009054906101000a900460ff16908060080154908060090160009054906101000a900473ffffffffffffffffffffffffffffffffffffffff1690508a565b8060015481106106db576040517f08c379a00000000000000000000000000000000000000000000000000000000081526004016106d2906122e7565b60405180910390fd5b816002600082815260200190815260200160002060090160009054906101000a900473ffffffffffffffffffffffffffffffffffffffff1673ffffffffffffffffffffffffffffffffffffffff163373ffffffffffffffffffffffffffffffffffffffff1614610780576040517f08c379a000000000000000000000000000000000000000000000000000000000815260040161077790612379565b60405180910390fd5b600060026000858152602001908152602001600020905060008160060154116107de576040517f08c379a00000000000000000000000000000000000000000000000000000000081526004016107d5906123e5565b60405180910390fd5b8060070160009054906101000a900460ff1615806107ff5750806008015442115b61083e576040517f08c379a000000000000000000000000000000000000000000000000000000000815260040161083590612451565b60405180910390fd5b6000816006015490506000826006018190555060008260070160006101000a81548160ff02191690831515021790555060008260040160009054906101000a900473ffffffffffffffffffffffffffffffffffffffff1673ffffffffffffffffffffffffffffffffffffffff16826040516108b8906124a2565b60006040518083038185875af1925050503d80600081146108f5576040519150601f19603f3d011682016040523d82523d6000602084013e6108fa565b606091505b505090508061093e576040517f08c379a000000000000000000000000000000000000000000000000000000000815260040161093590612503565b60405180910390fd5b857fd66662c0ded9e58fd31d5e44944bcfd07ffc15e6927ecc1382e7941cb7bd24c48360405161096e9190611ba5565b60405180910390a2505050505050565b6000600154905090565b600060015482109050919050565b600460205281600052604060002081815481106109b257600080fd5b90600052602060002001600091509150505481565b6060816001548110610a0e576040517f08c379a0000000000000000000000000000000000000000000000000000000008152600401610a05906122e7565b60405180910390fd5b60036000848152602001908152602001600020805480602002602001604051908101604052809291908181526020016000905b82821015610add57838290600052602060002090600302016040518060600160405290816000820160009054906101000a900473ffffffffffffffffffffffffffffffffffffffff1673ffffffffffffffffffffffffffffffffffffffff1673ffffffffffffffffffffffffffffffffffffffff1681526020016001820154815260200160028201548152505081526020019060010190610a41565b50505050915050919050565b600060608060606000806000806000808a6001548110610b3e576040517f08c379a0000000000000000000000000000000000000000000000000000000008152600401610b35906122e7565b60405180910390fd5b6000600260008e8152602001908152602001600020905080600001548160010182600201836003018460040160009054906101000a900473ffffffffffffffffffffffffffffffffffffffff16856005015486600601548760070160009054906101000a900460ff1688600801548960090160009054906101000a900473ffffffffffffffffffffffffffffffffffffffff16888054610bdd9061226a565b80601f0160208091040260200160405190810160405280929190818152602001828054610c099061226a565b8015610c565780601f10610c2b57610100808354040283529160200191610c56565b820191906000526020600020905b815481529060010190602001808311610c3957829003601f168201915b50505050509850878054610c699061226a565b80601f0160208091040260200160405190810160405280929190818152602001828054610c959061226a565b8015610ce25780601f10610cb757610100808354040283529160200191610ce2565b820191906000526020600020905b815481529060010190602001808311610cc557829003601f168201915b50505050509750868054610cf59061226a565b80601f0160208091040260200160405190810160405280929190818152602001828054610d219061226a565b8015610d6e5780601f10610d4357610100808354040283529160200191610d6e565b820191906000526020600020905b815481529060010190602001808311610d5157829003601f168201915b505050505096509b509b509b509b509b509b509b509b509b509b5050509193959799509193959799565b60006005600084815260200190815260200160002060008373ffffffffffffffffffffffffffffffffffffffff1673ffffffffffffffffffffffffffffffffffffffff16815260200190815260200160002054905092915050565b60036020528160005260406000208181548110610e0f57600080fd5b9060005260206000209060030201600091509150508060000160009054906101000a900473ffffffffffffffffffffffffffffffffffffffff16908060010154908060020154905083565b60015481565b6060600460008373ffffffffffffffffffffffffffffffffffffffff1673ffffffffffffffffffffffffffffffffffffffff168152602001908152602001600020805480602002602001604051908101604052809291908181526020018280548015610eeb57602002820191906000526020600020905b815481526020019060010190808311610ed7575b50505050509050919050565b60008054906101000a900473ffffffffffffffffffffffffffffffffffffffff1681565b806001548110610f60576040517f08c379a0000000000000000000000000000000000000000000000000000000008152600401610f57906122e7565b60405180910390fd5b600060026000848152602001908152602001600020905080600801544211610fbd576040517f08c379a0000000000000000000000000000000000000000000000000000000008152600401610fb49061256f565b60405180910390fd5b8060070160009054906101000a900460ff1661100e576040517f08c379a0000000000000000000000000000000000000000000000000000000008152600401611005906125db565b60405180910390fd5b8060050154816006015410611058576040517f08c379a000000000000000000000000000000000000000000000000000000000815260040161104f90612647565b60405180910390fd5b60006005600085815260200190815260200160002060003373ffffffffffffffffffffffffffffffffffffffff1673ffffffffffffffffffffffffffffffffffffffff168152602001908152602001600020549050600081116110f0576040517f08c379a00000000000000000000000000000000000000000000000000000000081526004016110e7906126b3565b60405180910390fd5b60006005600086815260200190815260200160002060003373ffffffffffffffffffffffffffffffffffffffff1673ffffffffffffffffffffffffffffffffffffffff1681526020019081526020016000208190555060003373ffffffffffffffffffffffffffffffffffffffff168260405161116c906124a2565b60006040518083038185875af1925050503d80600081146111a9576040519150601f19603f3d011682016040523d82523d6000602084013e6111ae565b606091505b50509050806111f2576040517f08c379a00000000000000000000000000000000000000000000000000000000081526004016111e99061271f565b60405180910390fd5b3373ffffffffffffffffffffffffffffffffffffffff16857f7a482fdeb6bc9a1376f597068a214a7a39472bb2eff1b8cad21ba04f49ddca1b846040516112399190611ba5565b60405180910390a35050505050565b6005602052816000526040600020602052806000526040600020600091509150505481565b8060015481106112b2576040517f08c379a00000000000000000000000000000000000000000000000000000000081526004016112a9906122e7565b60405180910390fd5b816002600082815260200190815260200160002060070160009054906101000a900460ff16611316576040517f08c379a000000000000000000000000000000000000000000000000000000000815260040161130d906125db565b60405180910390fd5b600260008281526020019081526020016000206008015442111561136f576040517f08c379a00000000000000000000000000000000000000000000000000000000081526004016113669061278b565b60405180910390fd5b600034116113b2576040517f08c379a00000000000000000000000000000000000000000000000000000000081526004016113a99061281d565b60405180910390fd5b6000600260008581526020019081526020016000209050348160060160008282546113dd919061286c565b92505081905550346005600086815260200190815260200160002060003373ffffffffffffffffffffffffffffffffffffffff1673ffffffffffffffffffffffffffffffffffffffff1681526020019081526020016000206000828254611444919061286c565b92505081905550600060405180606001604052803373ffffffffffffffffffffffffffffffffffffffff1681526020013481526020014281525090506003600086815260200190815260200160002081908060018154018082558091505060019003906000526020600020906003020160009091909190915060008201518160000160006101000a81548173ffffffffffffffffffffffffffffffffffffffff021916908373ffffffffffffffffffffffffffffffffffffffff16021790555060208201518160010155604082015181600201555050600460003373ffffffffffffffffffffffffffffffffffffffff1673ffffffffffffffffffffffffffffffffffffffff1681526020019081526020016000208590806001815401808255809150506001900390600052602060002001600090919091909150553373ffffffffffffffffffffffffffffffffffffffff16857fe555da28bdb778f65d22794d88927ebaeca03f7de9d1b7d39245bc8fb5ca078a346040516115c79190611ba5565b60405180910390a381600501548260060154106116385760008260070160006101000a81548160ff021916908315150217905550847f562099c771af1034e0fa4d272eeb12a622c0e7b284ff68212cc5ddd2c1b77d34836006015460405161162f9190611ba5565b60405180910390a25b5050505050565b60008073ffffffffffffffffffffffffffffffffffffffff168473ffffffffffffffffffffffffffffffffffffffff16036116af576040517f08c379a00000000000000000000000000000000000000000000000000000000081526004016116a6906128ec565b60405180910390fd5b600083116116f2576040517f08c379a00000000000000000000000000000000000000000000000000000000081526004016116e990612958565b60405180910390fd5b60008211611735576040517f08c379a000000000000000000000000000000000000000000000000000000000815260040161172c906129c4565b60405180910390fd5b600060015490506000620151808461174d91906129e4565b42611758919061286c565b90506040518061014001604052808381526020018a81526020018981526020018881526020018773ffffffffffffffffffffffffffffffffffffffff168152602001868152602001600081526020016001151581526020018281526020013373ffffffffffffffffffffffffffffffffffffffff16815250600260008481526020019081526020016000206000820151816000015560208201518160010190816118029190612bd2565b5060408201518160020190816118189190612bd2565b50606082015181600301908161182e9190612bd2565b5060808201518160040160006101000a81548173ffffffffffffffffffffffffffffffffffffffff021916908373ffffffffffffffffffffffffffffffffffffffff16021790555060a0820151816005015560c0820151816006015560e08201518160070160006101000a81548160ff02191690831515021790555061010082015181600801556101208201518160090160006101000a81548173ffffffffffffffffffffffffffffffffffffffff021916908373ffffffffffffffffffffffffffffffffffffffff1602179055509050506001600081548092919061191390612ca4565b9190505550817f2170fee8e65b01596ec56f4b4df98e903e2baf55bb74a163480d31de5ce830258a8760405161194a929190612cec565b60405180910390a281925050509695505050505050565b6000604051905090565b600080fd5b600080fd5b6000819050919050565b61198881611975565b811461199357600080fd5b50565b6000813590506119a58161197f565b92915050565b6000602082840312156119c1576119c061196b565b5b60006119cf84828501611996565b91505092915050565b6119e181611975565b82525050565b600081519050919050565b600082825260208201905092915050565b60005b83811015611a21578082015181840152602081019050611a06565b60008484015250505050565b6000601f19601f8301169050919050565b6000611a49826119e7565b611a5381856119f2565b9350611a63818560208601611a03565b611a6c81611a2d565b840191505092915050565b600073ffffffffffffffffffffffffffffffffffffffff82169050919050565b6000611aa282611a77565b9050919050565b611ab281611a97565b82525050565b60008115159050919050565b611acd81611ab8565b82525050565b6000611ade82611a77565b9050919050565b611aee81611ad3565b82525050565b600061014082019050611b0a600083018d6119d8565b8181036020830152611b1c818c611a3e565b90508181036040830152611b30818b611a3e565b90508181036060830152611b44818a611a3e565b9050611b536080830189611aa9565b611b6060a08301886119d8565b611b6d60c08301876119d8565b611b7a60e0830186611ac4565b611b886101008301856119d8565b611b96610120830184611ae5565b9b9a5050505050505050505050565b6000602082019050611bba60008301846119d8565b92915050565b6000602082019050611bd56000830184611ac4565b92915050565b611be481611ad3565b8114611bef57600080fd5b50565b600081359050611c0181611bdb565b92915050565b60008060408385031215611c1e57611c1d61196b565b5b6000611c2c85828601611bf2565b9250506020611c3d85828601611996565b9150509250929050565b600081519050919050565b600082825260208201905092915050565b6000819050602082019050919050565b611c7c81611ad3565b82525050565b611c8b81611975565b82525050565b606082016000820151611ca76000850182611c73565b506020820151611cba6020850182611c82565b506040820151611ccd6040850182611c82565b50505050565b6000611cdf8383611c91565b60608301905092915050565b6000602082019050919050565b6000611d0382611c47565b611d0d8185611c52565b9350611d1883611c63565b8060005b83811015611d49578151611d308882611cd3565b9750611d3b83611ceb565b925050600181019050611d1c565b5085935050505092915050565b60006020820190508181036000830152611d708184611cf8565b905092915050565b600061014082019050611d8e600083018d6119d8565b8181036020830152611da0818c611a3e565b90508181036040830152611db4818b611a3e565b90508181036060830152611dc8818a611a3e565b9050611dd76080830189611ae5565b611de460a08301886119d8565b611df160c08301876119d8565b611dfe60e0830186611ac4565b611e0c6101008301856119d8565b611e1a610120830184611ae5565b9b9a5050505050505050505050565b60008060408385031215611e4057611e3f61196b565b5b6000611e4e85828601611996565b9250506020611e5f85828601611bf2565b9150509250929050565b60008060408385031215611e8057611e7f61196b565b5b6000611e8e85828601611996565b9250506020611e9f85828601611996565b9150509250929050565b6000606082019050611ebe6000830186611ae5565b611ecb60208301856119d8565b611ed860408301846119d8565b949350505050565b600060208284031215611ef657611ef561196b565b5b6000611f0484828501611bf2565b91505092915050565b600081519050919050565b600082825260208201905092915050565b6000819050602082019050919050565b6000611f458383611c82565b60208301905092915050565b6000602082019050919050565b6000611f6982611f0d565b611f738185611f18565b9350611f7e83611f29565b8060005b83811015611faf578151611f968882611f39565b9750611fa183611f51565b925050600181019050611f82565b5085935050505092915050565b60006020820190508181036000830152611fd68184611f5e565b905092915050565b6000602082019050611ff36000830184611ae5565b92915050565b600080fd5b600080fd5b7f4e487b7100000000000000000000000000000000000000000000000000000000600052604160045260246000fd5b61203b82611a2d565b810181811067ffffffffffffffff8211171561205a57612059612003565b5b80604052505050565b600061206d611961565b90506120798282612032565b919050565b600067ffffffffffffffff82111561209957612098612003565b5b6120a282611a2d565b9050602081019050919050565b82818337600083830152505050565b60006120d16120cc8461207e565b612063565b9050828152602081018484840111156120ed576120ec611ffe565b5b6120f88482856120af565b509392505050565b600082601f83011261211557612114611ff9565b5b81356121258482602086016120be565b91505092915050565b61213781611a97565b811461214257600080fd5b50565b6000813590506121548161212e565b92915050565b60008060008060008060c087890312156121775761217661196b565b5b600087013567ffffffffffffffff81111561219557612194611970565b5b6121a189828a01612100565b965050602087013567ffffffffffffffff8111156121c2576121c1611970565b5b6121ce89828a01612100565b955050604087013567ffffffffffffffff8111156121ef576121ee611970565b5b6121fb89828a01612100565b945050606061220c89828a01612145565b935050608061221d89828a01611996565b92505060a061222e89828a01611996565b9150509295509295509295565b7f4e487b7100000000000000000000000000000000000000000000000000000000600052602260045260246000fd5b6000600282049050600182168061228257607f821691505b6020821081036122955761229461223b565b5b50919050565b7f43616d706169676e20646f6573206e6f74206578697374000000000000000000600082015250565b60006122d16017836119f2565b91506122dc8261229b565b602082019050919050565b60006020820190508181036000830152612300816122c4565b9050919050565b7f4f6e6c792063616d706169676e2063726561746f722063616e2063616c6c207460008201527f6869732066756e6374696f6e0000000000000000000000000000000000000000602082015250565b6000612363602c836119f2565b915061236e82612307565b604082019050919050565b6000602082019050818103600083015261239281612356565b9050919050565b7f4e6f2066756e647320746f207769746864726177000000000000000000000000600082015250565b60006123cf6014836119f2565b91506123da82612399565b602082019050919050565b600060208201905081810360008301526123fe816123c2565b9050919050565b7f43616d706169676e206973207374696c6c206163746976650000000000000000600082015250565b600061243b6018836119f2565b915061244682612405565b602082019050919050565b6000602082019050818103600083015261246a8161242e565b9050919050565b600081905092915050565b50565b600061248c600083612471565b91506124978261247c565b600082019050919050565b60006124ad8261247f565b9150819050919050565b7f5472616e73666572206661696c65640000000000000000000000000000000000600082015250565b60006124ed600f836119f2565b91506124f8826124b7565b602082019050919050565b6000602082019050818103600083015261251c816124e0565b9050919050565b7f43616d706169676e20686173206e6f7420656e64656420796574000000000000600082015250565b6000612559601a836119f2565b915061256482612523565b602082019050919050565b600060208201905081810360008301526125888161254c565b9050919050565b7f43616d706169676e206973206e6f742061637469766500000000000000000000600082015250565b60006125c56016836119f2565b91506125d08261258f565b602082019050919050565b600060208201905081810360008301526125f4816125b8565b9050919050565b7f43616d706169676e20676f616c20776173207265616368656400000000000000600082015250565b60006126316019836119f2565b915061263c826125fb565b602082019050919050565b6000602082019050818103600083015261266081612624565b9050919050565b7f4e6f20646f6e6174696f6e7320746f20726566756e6400000000000000000000600082015250565b600061269d6016836119f2565b91506126a882612667565b602082019050919050565b600060208201905081810360008301526126cc81612690565b9050919050565b7f526566756e64206661696c656400000000000000000000000000000000000000600082015250565b6000612709600d836119f2565b9150612714826126d3565b602082019050919050565b60006020820190508181036000830152612738816126fc565b9050919050565b7f43616d706169676e2068617320656e6465640000000000000000000000000000600082015250565b60006127756012836119f2565b91506127808261273f565b602082019050919050565b600060208201905081810360008301526127a481612768565b9050919050565b7f446f6e6174696f6e20616d6f756e74206d75737420626520677265617465722060008201527f7468616e20300000000000000000000000000000000000000000000000000000602082015250565b60006128076026836119f2565b9150612812826127ab565b604082019050919050565b60006020820190508181036000830152612836816127fa565b9050919050565b7f4e487b7100000000000000000000000000000000000000000000000000000000600052601160045260246000fd5b600061287782611975565b915061288283611975565b925082820190508082111561289a5761289961283d565b5b92915050565b7f496e76616c69642062656e656669636961727920616464726573730000000000600082015250565b60006128d6601b836119f2565b91506128e1826128a0565b602082019050919050565b60006020820190508181036000830152612905816128c9565b9050919050565b7f476f616c206d7573742062652067726561746572207468616e20300000000000600082015250565b6000612942601b836119f2565b915061294d8261290c565b602082019050919050565b6000602082019050818103600083015261297181612935565b9050919050565b7f4475726174696f6e206d7573742062652067726561746572207468616e203000600082015250565b60006129ae601f836119f2565b91506129b982612978565b602082019050919050565b600060208201905081810360008301526129dd816129a1565b9050919050565b60006129ef82611975565b91506129fa83611975565b9250828202612a0881611975565b91508282048414831517612a1f57612a1e61283d565b5b5092915050565b60008190508160005260206000209050919050565b60006020601f8301049050919050565b600082821b905092915050565b600060088302612a887fffffffffffffffffffffffffffffffffffffffffffffffffffffffffffffffff82612a4b565b612a928683612a4b565b95508019841693508086168417925050509392505050565b6000819050919050565b6000612acf612aca612ac584611975565b612aaa565b611975565b9050919050565b6000819050919050565b612ae983612ab4565b612afd612af582612ad6565b848454612a58565b825550505050565b600090565b612b12612b05565b612b1d818484612ae0565b505050565b5b81811015612b4157612b36600082612b0a565b600181019050612b23565b5050565b601f821115612b8657612b5781612a26565b612b6084612a3b565b81016020851015612b6f578190505b612b83612b7b85612a3b565b830182612b22565b50505b505050565b600082821c905092915050565b6000612ba960001984600802612b8b565b1980831691505092915050565b6000612bc28383612b98565b9150826002028217905092915050565b612bdb826119e7565b67ffffffffffffffff811115612bf457612bf3612003565b5b612bfe825461226a565b612c09828285612b45565b600060209050601f831160018114612c3c5760008415612c2a578287015190505b612c348582612bb6565b865550612c9c565b601f198416612c4a86612a26565b60005b82811015612c7257848901518255600182019150602085019450602081019050612c4d565b86831015612c8f5784890151612c8b601f891682612b98565b8355505b6001600288020188555050505b505050505050565b6000612caf82611975565b91507fffffffffffffffffffffffffffffffffffffffffffffffffffffffffffffffff8203612ce157612ce061283d565b5b600182019050919050565b60006040820190508181036000830152612d068185611a3e565b9050612d1560208301846119d8565b939250505056fea2646970667358221220ae020a105e9f0e37967bbbe9b0bd4ac9484a916789e4fd503c873bc40abf160264736f6c63430008140033",
  "linkReferences": {},
  "deployedLinkReferences": {}
}